:020000040800F2
:1000000020370020155B000871570008735700085F
:10001000755700087757000879570008000000005E
:100020000000000000000000000000007B570008F6
:100030007D57000800000000530C0008DB0E00088C
:10004000555B0008595B00085D5B0008615B0008B8
:10005000655B0008695B00086D5B0008715B000868
:10006000755B0008795B00087D5B0008815B000818
:100070007F570008855B000889570008895B0008E6
:100080008D5B0008915B0008955B0008995B000898
:10009000935700089D5B0008A15B0008A55B000862
:1000A000A95B0008AD5B0008B15B0008B55B000808
:1000B000B95B0008BD5B0008C15B0008C55B0008B8
:1000C000C95B0008CD5B0008D15B0008D55B000868
:1000D000D95B00089D570008A7570008B1570008D2
:1000E000DD5B0008E15B0008E55B0008E95B0008F8
:1000F000ED5B0008F15B0008F55B0008F95B0008A8
:10010000FD5B0008015C0008055C0008095C000854
:100110000D5C0008115C0008155C0008195C000803
:100120001D5C0008215C0008CD570008D757000867
:10013000255C0008295C00082D5C0008315C000883
:10014000355C0008395C00083D5C0008415C000833
:10015000455C0008495C0008E15700084D5C000858
:10016000515C0008555C0008595C00085D5C0008A3
:10017000615C0008655C0008695C00080000000024
:100180006D5C0008715C00082DE9F04104000D0071
:1001900016000027002C02D1042030701CE0002D36
:1001A00002D10C20307017E0DFF88C0700780028AF
:1001B00002D0122030700FE02078401E032809D8AA
:1001C00000F026FD80466561404600F025FD0020D8
:1001D000307001E001203070BDE8F08180B500F0A2
:1001E0006DFD00F07FFA00F0A8FA00F004FB00F0CB
:1001F0003FFA00F0E3FE00F02BFF00F05FFF00F09D
:10020000BEFA00F0DAFA00F090FF00F06EFD01F0A7
:10021000D7F801BD10B50024DFF854090078012893
:1002200041D100F0F5FC0400DFF80C07007800284D
:1002300006D0DFF804070078401EDFF8FC160870CF
:10024000DFF8F406007800282AD1DFF8F0060078FD
:10025000002825D100F048FBDFF81809DFF818194D
:10026000097850F82100DFF814190860DFF8080950
:100270000078DFF80C190978884211D0DFF8FC0803
:100280000068C06B401CDFF8F4180968C863DFF829
:10029000F4080068401CDFF8EC18086000F0D5FC9A
:1002A000200000F0B9FC10BD10B50024DFF8C00834
:1002B0000078012816D100F0ABFC0400DFF87806C6
:1002C000007800280BD1DFF874060078FF2806D0EC
:1002D000DFF868060078401CDFF860160870200020
:1002E00000F09AFC10BD10B50024DFF884080078F7
:1002F000012829D100F08CFC0400DFF83C060078CE
:1003000000281ED1DFF834060078002815D0DFF869
:100310002C060078401EDFF824160870DFF81C0653
:100320000078002805D1200000F076FC00F0AEFA3D
:100330000AE0200000F070FC06E0200000F06CFCF9
:1003400002E0200000F068FC10BD80B5DFF8200856
:100350000078002819D100F0C7FADFF81C080078EF
:10036000DFF81C180870DFF80C08DFF80C180978A3
:1003700050F82100DFF804180860DFF80008006872
:10038000DFF8E417086000F04AFC01BDF8B500276B
:1003900000F091FD00F03CFC0600DFF8F807006873
:1003A000401CDFF8F0170860300000F035FCDFF883
:1003B000C0070078012864D1DFF8DC070078002846
:1003C00003D0022807D003D30CE0012005000FE082
:1003D000002005000CE0012005000120DFF8B8171F
:1003E000087005E0012005000020DFF8AC17087058
:1003F0002800C0B2002844D0DFF8A007006804003D
:1004000094F836003F283CD000F002FC0600206B38
:10041000002831D0206B401E2063206B00282BD198
:1004200094F8340010F0370F09D094F8340010F02D
:10043000C80084F83400012084F8350002E0002070
:1004400084F8350094F83400000715D4DFF850071D
:10045000017894F83A000143DFF844070170DFF8AF
:10046000440794F83810415C94F839000143DFF8F0
:10047000340794F8382081546469300000F0CCFBD4
:10048000BEE7F1BD70472DE9F84F04000D001600DE
:100490001F00DFF81407A17A10F80180DFF80807C1
:1004A0004146C9B22144C97A10F801904046C0B211
:1004B000C00050FA89FADFF8BC065146C9B250F8BC
:1004C00021B00020CBF83000CBF824509BF834004A
:1004D000B0438BF834008BF835709BF8340000077C
:1004E00015D4DFF8BC0601789BF83A000143DFF829
:1004F000B0060170DFF8AC064146C9B2415C9BF81A
:1005000039000143DFF89C064246D2B281542100F3
:10051000584600F05AF8DBF82000002806D0DBF837
:100520002010584600F06EF8CBF81C405046C0B280
:10053000BDE8F28F10B4DFF830160968C861DFF843
:100540002816096891F838100144CA7ADFF818169D
:10055000096891F839100A43DFF80C16096891F818
:1005600038100144CA72827ADFF8FC15096891F8E4
:100570003A100A438272DFF8F015096891F83820C2
:10058000DFF820161300DBB2CB5CDFF8DC1509685E
:1005900091F839108B43DFF80C161400E4B20B55B8
:1005A000DFF800161300DBB2C95C00290BD1DFF8BD
:1005B000F0150B78DFF8B015096891F83A108B4305
:1005C000DFF8DC150B7010BC704710B490F83830B1
:1005D0001A00D2B20A44D47A90F8392094431A000F
:1005E000D2B20A44D4721A00D2B20A44D27A002A91
:1005F00004D18C7A90F83A2094438C720022C26124
:1006000010BC7047F0B402000B0092F8384092F82A
:100610003A5092F839601F003868002817D021003E
:10062000C9B20144C97AB143A4465FFA8CFC844440
:100630008CF80B102100C9B20144C97A002902D1FB
:10064000817AA94381723F1D39680800E5E7F0BC53
:1006500070470021817200210A00D2B2082A06D216
:1006600000220B00DBB20344DA72491CF4E7704746
:1006700070B5F021DFF8340500F0FEF80021080025
:1006800080B209281AD2481C0400DFF820250B008C
:100690009BB21820434302EB03000500DFF80C2552
:1006A00023009BB21820434302EB03000600002006
:1006B00028706E609FA06861491CE0E7DFF8EC24B9
:1006C0000B009BB21820434302EB03000022027090
:1006D0000022426097A24261DFF8D024DFF8D034D4
:1006E0001A6070BD0020DFF8AC1408600020924949
:1006F00008700020914908700020DFF8B8140870D5
:100700000020DFF86C1408700020DFF8781408600F
:100710000020DFF8741408600020DFF89C140860E3
:100720000020DFF8681408600020DFF86414087007
:100730000020DFF88814087070470020DFF860148C
:10074000087000200100C9B2082907D20021DFF893
:1007500054240300DBB2D154401CF3E70021DFF83E
:10076000202411700021DFF8102411700021DFF81F
:100770000C2411600021DFF8F0231160704780B570
:1007800086B0032004900020039080200290DFF8C0
:10079000300401904FF6FF7000903F23DFF82424CF
:1007A00000210FF26D1000F0EBFE05AADFF818141F
:1007B0003F2001F022F807B000BD80B586B00320CD
:1007C00004900020039080200290DFF80004019044
:1007D0004FF6FE7000903E23DFF8F42300210FF265
:1007E000611000F0CDFE05AADFF8E8133E2001F00D
:1007F00004F807B000BD70B54FF4F261DFF8D8031C
:1008000000F03AF84FF48071DFF8680300F034F834
:1008100000210800C0B2152818D2481C0400DFF8D7
:10082000B8230B00DBB25820434302EB0300050062
:10083000DFF8A4232300DBB25820434302EB03007C
:1008400006006E613BA02865491CE2E7DFF88823BB
:100850000B00DBB25820434302EB0300002242614D
:1008600034A202650022DFF834331A60DFF868230F
:10087000DFF868331A6070BD0A0092B2002A04D013
:1008800000220270401C491EF6E7704738B500256B
:1008900000F0BEF9040028480078002820D127483D
:1008A000007800281CD100F01FF8B248B24909783E
:1008B00050F82100B1490860AF480078B049097884
:1008C00088420DD0AD480068C06B401CAB49096838
:1008D000C863AC480068401CAA49086000F0B1F940
:1008E000200000F099F931BD10B4AF48AC49097847
:1008F000405C0100C9B2C900AB4AAA4B0400E4B293
:100900001B5DD25C89189C4A117010BC70470000B6
:1009100038B50400002500F07BF905009A4800680E
:10092000401C99490860280000F076F900F0EAF9C7
:10093000F1E700003F0000001025002011250020F5
:1009400070B50500002492480078002803D1C82023
:1009500001F08CF8F7E78D4800686421B0FBF1F0F6
:100960008A49086089480068002805D100209C4910
:100970000870FF2000F0E4FF00F04AF90600834809
:1009800001686420414380480160300000F044F970
:1009900000F03EF906007C480068874908600020A6
:1009A00079490860300000F037F9834800687749DA
:1009B0000968B0FBF1F0D0F164008949087000F0DB
:1009C000ABF900F004F8642001F050F8E0E77CB5E2
:1009D00000263000C0B240281CD269463000C0B2A8
:1009E00000F056FF05002800C0B2002810D1614871
:1009F0003100C9B250F821000400002C08D0012CAD
:100A000006D0A068E16800EB8100A0640198E06472
:100A1000761CDEE773BD2DE9FE4F06000D9F0E9D8F
:100A20005FF0000900F0F4F880466C480468002C80
:100A300000F09480606969490860404600F0ECF875
:100A40000098206084F83660002084F8340000208C
:100A500084F835000020206367600C98E0600198FE
:100A6000A0602582BDF808006082002084F83B0069
:100A70003000C0B2C00884F8380016F0070084F8CF
:100A80003700012194F83800814084F83A100121A0
:100A900094F83700814084F839100020E06100208C
:100AA00020620020A062002060620020E06300203D
:100AB0006064002020640020A0640020E0642BA07B
:100AC00020655FF000094846C0B2002808D1002028
:100AD0004946C9B204EB8101486519F10109F2E701
:100AE000200000F0E2F900F093F88246214831003E
:100AF000C9B240F82140504600F08EF8200000F0C6
:100B0000F5F800F085F8834624480068606100200D
:100B1000A06122480068002802D020480068846153
:100B20001E4804601E48017894F83A0001431C48AE
:100B300001701C4894F83810415C94F83900014366
:100B4000184894F8382081541A480078401C1949F4
:100B50000870584600F060F8002003E0404600F0BE
:100B60005BF84220BDE8FE8FD82400203F00000043
:100B700015250020141C002013250020E02400204F
:100B800012250020C0240020D4240020CC240020E2
:100B90000F250020F024002017250020E424002049
:100BA00014250020B024002070560008141D0020D9
:100BB000C424002016250020D02400201825002061
:100BC00014180020101A0020D45A0008141600200F
:100BD00010180020E45A000804080020DC2400203B
:100BE0000E250020EFF3098141B1F1EE101A40F813
:100BF000041D20ED200A27490A6810607047B0ECF8
:100C0000200A02C8E1EE101A23490A6810607047F2
:100C1000EFF3108072B6704780F3108870471F485A
:100C2000FF210170002080F309881D48016881F3CD
:100C300008881C48012101701B481C49016062B6EC
:100C4000FEE71948194901607047174817490160C4
:100C5000704772B6EFF3098028B1203880E8F00FB2
:100C60000C490968086000B5114880475DF804EB3D
:100C7000104811490A780270064807490A6802605C
:100C8000106890E8F00F203080F309884EF0F40EE1
:100C900062B67047D8240020E024002022ED00E056
:100CA000042500201525002004ED00E000000010C0
:100CB0007B0E000812250020132500209A494FF4CE
:100CC0000070002804D0401E00220A60091DF8E7C9
:100CD000964A974B1A60964A1268D208D200944BF3
:100CE0001A600022934B1A807047704710B50400B9
:100CF000200000F063FF10BD10B50400200000F0DC
:100D00005EFF10BD80B500F05BFF01BD10B50400B3
:100D1000200000F057FF10BD80B500F052FF01BD6C
:100D200030B40400101DC008C000001F5FF08075C3
:100D30000560001F0460001F7F4D0560001F5FF00D
:100D400012350560001F5FF003350560001F5FF07E
:100D500002350560001F5FF001350560001F01606E
:100D6000001F5FF011350560001F5FF01035056052
:100D7000001F5FF009350560001F5FF00835056052
:100D8000001F5FF007350560001F5FF00635056046
:100D9000001F5FF005350560001F5FF0043505603A
:100DA0005D0768D5001F5FF000750560001F634D8B
:100DB0000560001F624D0560001F624D0560001F49
:100DC000614D0560001F614D0560001F604D0560AD
:100DD000001F604D0560001F5F4D0560001F5F4DE7
:100DE0000560001F5E4D0560001F5E4D0560001F21
:100DF0005D4D0560001F5D4D0560001F5C4D056089
:100E0000001F5C4D0560001F5FF083450560001FFB
:100E1000594D0560001F594D0560001F584D056074
:100E2000001F584D0560001F574D0560001F574DAE
:100E30000560001F564D0560001F5FF0824505608C
:100E4000001F544D0560001F534D0560001F534D9A
:100E50000560001F5FF081450560001F504D056073
:100E6000001F5FF080450560001F5FF07E55056044
:100E7000001F0025056030BC704780B549480068F8
:100E8000007C400704D5474800680068FFF7AAFEC9
:100E900045480068007C400704D543480068006866
:100EA000FFF7ADFE00F08FFE01BD10B5040020007D
:100EB00000F08AFE10BD80B500F087FE1D48008856
:100EC000401C1C4908801B480088642804D300206B
:100ED0001849088000F022F901BD10B5FFF798FE0F
:100EE000040032480078401C304908702000FFF7A9
:100EF00093FEFFF74BFAFFF78DF910BD411E2C4A08
:100F000011602C49096821F07F412A4A11602A4A60
:100F1000126852F00502284B1A60274A126852F0F4
:100F20000202254B1A6070470400002004080020CC
:100F3000042500200C250020191A00080000F841A3
:100F40000000F0410000E8410000E0410000D8410D
:100F50000000D0410000C8410000C0410000B8417D
:100F60000000B0410000A8410000A04100009841ED
:100F70000000904100008841000070410000604185
:100F8000000050410000404100003041000020417D
:100F9000000010410000E0400000C0400000A04000
:100FA00000004040D8240020E0240020102500202C
:100FB00014E000E020ED00E010E000E070B550210A
:100FC0001748FFF759FC0020010089B2042914D208
:100FD000411C0C001249020092B2120111440D0092
:100FE0000F49220092B2120111440E000021297013
:100FF0006E6009A1E960401CE6E70949020092B26F
:101000001201114400220A7000224A6002A2CA6042
:10101000034A024B1A6070BD3F000000C824002044
:101020008421002030B442680168002A07D1C368D7
:101030001C006160002906D000234B6003E01160B2
:10104000002900D04A60836800259D6230BC70474B
:1010500010B578211848FFF70FFC0021080080B276
:10106000042814D2144A0B009BB21820434302EB0D
:1010700003000400104A0B009BB21820434302EB0C
:101080000300183060600AA06061491CE6E70A4A64
:101090000B009BB21820434302EB03000022426086
:1010A00003A24261044A034B1A6010BD0000000015
:1010B0003F000000E8240020041E002070B56021DD
:1010C0001548FFF7D9FB0021080080B2032814D28D
:1010D000481C0400104A0B009BB21820434302EB4B
:1010E000030005000C4A23009BB21820434302EB87
:1010F000030006002E60491CE6E7074A0B009BB27E
:101100001820434302EB030000220260024A014B15
:101110001A6070BDEC240020A41F002080B59C48FC
:10112000006800F0FDFDC0B202BD2DE9FC414FF4A6
:1011300020719B48FFF7A0FB38219A48FFF79CFBE2
:101140000027380080B20F281BD2781C0400944975
:101150003A0092B22820424301EB02000500904978
:10116000220092B22820424301EB020006006420D4
:101170002870002085F82500EE605FA028627F1CA3
:10118000DFE787493A0092B22820424301EB020888
:10119000642088F80000002088F825000020C8F8A6
:1011A0000C0055A0C8F820000020784908600020F5
:1011B0007949088010207949088079487549086084
:1011C000012000F003FD78490860002000F0FEFCDB
:1011D0006F4908606A46754973480068FEF7D4FF96
:1011E0006A4673496A480068FEF7CEFF00F002F8CD
:1011F000BDE8F38180B586B0032004900020039001
:10120000802002906B4801904FF6FD7000903D23C6
:10121000694A00210FF2E50000F0B2F905AA67491A
:101220003D2000F0EAFA07B000BD30B4032280F898
:1012300025200A00D2B2012A05D1C469534A126896
:10124000141944610DE08269002A05D1C4694F4A2E
:1012500012681419446104E084694C4A1268141934
:10126000446142690725B2FBF5F405FB14244D4A9D
:101270002500ADB202EBC5052A68002A05D1286019
:101280000022C2600122AA8007E02A6813002860B9
:10129000C3601861AA88521CAA800022026130BC77
:1012A000704730B442690724B2FBF4F304FB132304
:1012B0003C4A1C00A4B202EBC4042268824206D15C
:1012C000C2682260002A09D00025156106E0026983
:1012D000C5682900D160002900D00A61012580F885
:1012E00025500025C56000250561A5886D1EA580D7
:1012F00030BC7047000000003F0000002DE9F843BB
:1013000081466A4600212248006800F087FCFEF70B
:10131000CBFF1E480068401C1C49086007201B4981
:1013200009681A4A1268B2FBF0F200FB12108046FC
:101330001C48414689B200EBC10007003868040030
:10134000002C1FD0E06805001048006861698842E1
:1013500016D12000FFF7A5FF94F82400022804D13D
:1013600001212000FFF761FF02E0022084F8250040
:10137000606806003000002802D0A1682000B04755
:101380002C00DDE7FEF7AFFFBBE70000F4240020F0
:10139000FC240020002500200A250020082500202C
:1013A000941300201C240020F8240020AC5A0008CC
:1013B000C05A0008141A0020101C0020F45A00081B
:1013C0002DE9F84F35480090354800903548009099
:1013D00035480090354800903548009035480090D9
:1013E00035480090354800903548009035480090C9
:1013F00035480090354800903548009035480090B9
:1014000035480090354800903548009035480090A8
:101410003548009035480090354800903548009098
:101420003548009035480090354800903548009088
:101430003548009035480090354800903548009078
:101440003548009035480090354800903548009068
:101450003548009035480090354800903548009058
:101460003548009035480090354800903548009048
:1014700035483649364A374B374C384D384E394F58
:10148000DFF8E4C0DFF8E4E0DFF8E480DFF8E490C0
:10149000DFF8E4A0DFF8E4B0BDE8F18F2A2C000803
:1014A000505B0008623500086A3500087E3100088C
:1014B0008A4700088E47000812520008BE520008F2
:1014C0006E56000856590008605A00088A5A0008EB
:1014D000965A0008785C00087A5C00087C5C00087A
:1014E0007E5C0008805C0008825C0008845C000868
:1014F000865C0008885C00088A5C00088C5C000838
:101500008E5C0008905C0008925C0008945C000807
:10151000965C0008985C00089A5C00089C5C0008D7
:101520009E5C0008A05C0008A25C0008A45C0008A7
:10153000A65C0008A85C0008AA5C0008AE5C000875
:10154000B05C0008B25C0008B45C00089413002092
:101550001C240020B85C0008BA5C0008BC5C0008D1
:10156000BE5C0008C05C0008C25C0008C45C0008E7
:10157000C65C0008C85C0008B65C0008CA5C0008CD
:101580002DE9F74F84B01D00119E129FDDF84C80AD
:10159000149C5FF0000A2800C0B2402801D32A2022
:1015A0005BE0FFF735FB8146DFF894040078002804
:1015B00004D04846FFF730FB3C204EE0DFF86C04D7
:1015C0002900C9B250F82100002842D10120DFF8DB
:1015D0005C142A00D2B241F822004846FFF71CFBF7
:1015E000220092B23900300000F034FA23009BB29E
:1015F000069A05990498FFF793FB8246200080B273
:101600000290CDF804800097BDF84030320051467A
:101610002800C0B2FFF7FFF983465846C0B2002841
:1016200007D1DFF81804007801280FD1FFF72EF951
:101630000CE0FFF7EDFA81460020DFF8F0132A00F6
:10164000D2B241F822004846FFF7E6FA5846C0B247
:1016500003E04846FFF7E0FA282007B0BDE8F08F26
:101660002DE9F04106000024DFF8D40300780028BB
:1016700001D04020BFE03000C0B23F2801D13E2061
:10168000B9E03000C0B23F2805D33000C0B2FF2817
:1016900001D02A20AFE0FFF7BBFA07003000C0B24C
:1016A000FF2805D1DFF88803006890F836000600AF
:1016B000DFF878033100C9B250F82140002C04D182
:1016C0003800FFF7A9FA432095E0012C04D1380037
:1016D000FFF7A2FA3D208EE0DFF8580394F83810A7
:1016E000415C94F839008143DFF8480394F83820CE
:1016F0008154DFF8400394F83810405C002808D18A
:10170000DFF83403017894F83A008143DFF82803C6
:101710000170E069002803D0E1692000FEF755FF61
:10172000206A002803D0216A2000FEF76BFFA56A1B
:10173000002D02D02800FFF775FC00202063002058
:1017400084F83400002084F83500DFF8F8020078CF
:10175000FF2806D0DFF8EC020078401CDFF8E41226
:1017600008703800FFF758FAFEF78CFEFFF750FAC2
:101770008046DFF8D0020078002806D0DFF8C402E7
:101780000078401EDFF8BC1208702000FFF7B4FAA2
:10179000DFF8B4020078401EDFF8AC1208700020B9
:1017A000DFF888123200D2B241F82200A069002886
:1017B00007D10020616988616069DFF890120860D4
:1017C00005E06069A1694861A06961698861DFF825
:1017D000800200686061DFF8780204602BA0206559
:1017E0004046FFF719FADFF854020078012801D1CA
:1017F000FFF74CF80020BDE8F0812DE9F04107002B
:101800000C00160000253800C0B2402806D338006E
:10181000C0B2FF2802D02A20307035E0002C02D15F
:101820000C20307030E0DFF818020078002802D079
:101830001220307028E0FFF7EBF980463800C0B284
:10184000FF2805D1DFF8E801006890F836000700AE
:10185000DFF8D8013900C9B250F82150002D05D168
:101860004046FFF7D9F9432030700DE0012D05D136
:101870004046FFF7D1F94320307005E02C65404623
:10188000FFF7CAF900203070BDE8F0813F0000008A
:101890002DE9F04706000C0000253000C0B24028BA
:1018A00005D33000C0B2FF2801D02A2046E0002C2A
:1018B00001D1092042E00020206000206060FFF795
:1018C000A7F907003000C0B2FF2804D158480068CB
:1018D00090F83600060055483100C9B250F8215042
:1018E000002D04D13800FFF797F9432026E0012DA1
:1018F00004D13800FFF790F943201FE0287CC0078F
:1019000004D43800FFF788F9452017E05FF000089D
:10191000D5F80C90D5F808A03800FFF77DF95046AF
:1019200010F1040A0068002802D118F10108F6E756
:10193000C4F80080B9EB080060600020BDE8F087C3
:101940002DE9F041050000242800C0B23F2801D154
:1019500047205FE02800C0B23F2805D32800C0B26E
:10196000FF2801D02A2055E0FFF752F90600280091
:10197000C0B2FF2806D12E48006890F83600050056
:1019800001270AE028002A49096891F83610C0B2F8
:10199000884201D1012700E0002724482900C9B26C
:1019A00050F82140002C04D13000FFF735F94820D1
:1019B00030E0012C04D13000FFF72EF9432029E05C
:1019C00094F838801B484146C9B2415C94F839000C
:1019D000814318484246D2B2815416484146C9B2A2
:1019E000405C002806D11448017894F83A008143FD
:1019F0001148017094F8340050F0080084F8340065
:101A00003000FFF709F93800C0B2012801D1FEF714
:101A10003DFF0020BDE8F08180B505480068FFF774
:101A200075F9FF20FFF71CFE01BD0000141C00200B
:101A3000D8240020B02400201425002015250020E3
:101A4000102500201125002016250020E424002068
:101A5000DC240020D30708D5930706D5002904D03D
:101A6000491E00230360001DF8E7704770B50400AD
:101A700000264C480078002831D14B4800780028D7
:101A80002DD1002C2BD0FFF7C3F806004748006883
:101A900090F83800050046482900C9B2415C434827
:101AA000006890F83900814341482A00D2B281543D
:101AB0003F482900C9B2405C002808D13D48017860
:101AC0003A48006890F83A0081433A480170374834
:101AD000006804633000FFF79FF8FEF7D7FE70BD83
:101AE0002DE9F04104000D0016001F002D4800787C
:101AF000002801D0552047E02B480078002801D06D
:101B0000322041E02000C0B200280DD12800C0B230
:101B1000002809D13000C0B2002805D1380080B2B9
:101B2000002801D154202FE02800C0B23C2801D366
:101B3000512029E03000C0B23C2801D3522023E0DC
:101B4000380080B2B0F57A7F01D353201CE0210029
:101B5000C9B24FF461622B00DBB23C20434302FB6D
:101B6000013151FA86F84FF47A713A0092B24FF48B
:101B70007A7042434FF47A70B2FBF0F001FB080830
:101B80004046FFF773FF0020BDE8F08170B50025E7
:101B9000FFF73EF80600084804683000FFF73CF8FD
:101BA000200070BD1025002011250020D824002021
:101BB000B024002014250020F02400207047704736
:101BC000704770477047704770477047F8B5050019
:101BD00000264F480078002801D000201DE0FFF7C4
:101BE00017F807004B4804684A480068002804D0EA
:101BF000484800684068474908603800FFF70CF81B
:101C0000002C09D0032020702581002060603FA0B7
:101C100060612000FEF71DFD2000F2BD2DE9F041BE
:101C200004000D0016000027002C02D104203070A3
:101C30006AE02078032802D00120307064E0344844
:101C40000078002802D0022030705DE03248007831
:101C5000002802D00D20307056E0FEF7D9FF8046F4
:101C60002089002808D02089401E20814046FEF7A8
:101C7000D3FF0020307047E02848006890F8340017
:101C800050F001002549096881F8340000202349FB
:101C9000096881F835002148006805632000FEF7D7
:101CA00049FC4046FEF7B8FFFEF7F0FDFEF7B0FF37
:101CB00007001A48006890F83500002802D0022872
:101CC00003D005E00020307009E00E20307006E0FF
:101CD000210012480068FEF778FC0A2030700020CE
:101CE0000E49096881F8340000200C49096881F820
:101CF0003500002009490968C861002007490968C2
:101D000008623800FEF788FFBDE8F0813F00000060
:101D100010250020C424002011250020D8240020F4
:101D200070B504000025002C01D1042028E02078A3
:101D3000032801D0012023E0FEF76AFF0600A07A05
:101D400000280CD00023012200212000FEF79BFB7D
:101D50003000FEF761FFFEF799FD002010E02089BA
:101D60004FF6FF71884207D02089401C2081300047
:101D7000FEF752FF002003E03000FEF74DFF332056
:101D800070BD30B4002513E050F8042BD30744BFD6
:101D9000A9F101039A18091F042942F8045BFAD239
:101DA00013468C0744BF15809B1CC90748BF1D7094
:101DB00050F8041B0029E7D130BC704710B504006F
:101DC000002C01D1012033E0A0690028FFD194F854
:101DD0003900002805D1002084F83800200000F0E8
:101DE000DDFC242084F839002068C06830F40050FD
:101DF0002168C860200000F071FA2068006930F4A2
:101E00009040216808612068406930F02A0021680C
:101E100048612068C06850F400502168C860002004
:101E2000E063202084F83900202084F83A00002064
:101E300010BD73B50400150094F83A00202851D164
:101E40000198002803D0280080B2002801D1012089
:101E500049E094F83800012801D1022043E0012034
:101E600084F838000198A062A5850020E063222054
:101E700084F83A000FF22D20616BC8630FF26920DD
:101E8000616B08640FF27120616BC8640020616BA4
:101E9000086501AE2B009BB232682068011D606BA3
:101EA00000F035FF00200090206800680090206856
:101EB000406800900098002084F838002068C068CE
:101EC00050F480702168C8602068406950F00100BB
:101ED000216848612068406950F0400021684861ED
:101EE000002000E0022076BD70B5060000203168B9
:101EF0004C69E40914F0010496F83910212910D135
:101F0000002C0ED03068406930F0800031684861A4
:101F1000306B002802D0306B00F045FF300000F03D
:101F200017F930684569AD0915F0010596F83A00D2
:101F3000222810D1002D0ED03068406930F04000CA
:101F400031684861706B002802D0706B00F02BFF85
:101F5000300000F007F9002070BD2DE9F8430600BD
:101F6000306807683068D0F80C803068D0F814907A
:101F70000020002517F00F04002C08D1B80606D564
:101F80005FEA886003D5300000F051F988E0002C4A
:101F900074D05FEAC97002D418F4907F6ED017F045
:101FA0000100C0B2002806D05FEAC85003D5F06B2C
:101FB00050F00100F063780708D519F00100C0B2B5
:101FC000002803D0F06B50F00200F063B80708D58A
:101FD00019F00100C0B2002803D0F06B50F00400EB
:101FE000F063380708D519F00100C0B2002803D00B
:101FF000F06B50F00800F063F06B00283DD0B8069D
:1020000005D55FEA886002D5300000F010F930682D
:102010004069800910F001000500F06B000701D451
:10202000002D25D0300000F09DF830684069400652
:102030001AD53068406930F0400031684861706BF3
:1020400000280DD00FF24110716B0865706B00F025
:10205000F8FE002811D0706B716B096D88470CE099
:10206000300000F0B7FD08E0300000F0B3FD04E000
:10207000300000F0AFFD0020F06311E0380606D517
:102080005FEA086003D5300000F08AF808E07806BF
:1020900006D55FEA486003D5300000F0B8F8FFE7E6
:1020A000BDE8F18338B50400A56B20680068C00561
:1020B00016D40020E8852868C06830F4807029684C
:1020C000C86028684069400840002968486128685D
:1020D000406930F0400029684861202085F83A00C6
:1020E000280001F049F831BD38B50400A56B28007F
:1020F00001F043F831BD0000F8B506000020B76BD1
:1021000039684C69E40914F0010497F83910212961
:1021100006D1002C04D00020F884380000F018F814
:1021200038684569AD0915F0010597F83A0022288D
:1021300006D1002D04D00020F885380000F012F8F8
:10214000F86B50F01000F863380000F043FDF1BD6B
:102150000168C96831F0C0010268D160202180F8AF
:10216000391070470168C96831F490710268D16014
:10217000016849694908490002685161202180F8D5
:102180003A1070470000000038B50400A56B00202D
:10219000E8850020E884280000F01CFD31BD000027
:1021A000010091F8390021282FD18868B0F5805FAF
:1021B00011D1086A02001088C005C00D0B68586074
:1021C0000869002803D1086A801C086209E0086ACF
:1021D000401C086205E0086A431C0B6200780B682B
:1021E0005860C88C401EC88480B200280BD1086893
:1021F000C06830F080000B68D8600868C06850F094
:1022000040000B68D860002000E00220704710B545
:1022100004002068C06830F040002168C8602020B9
:1022200084F83900200000F0A9FF002010BD38B567
:10223000040094F83A0022284ED1A068B0F5805FDF
:1022400016D1A06A05002069002808D120684068DE
:10225000C005C00D2880A06A801CA0621AE020681A
:10226000406800F0FF002880A06A401CA06211E0D6
:102270002069002806D1A06A411CA1622168496832
:10228000017007E0A06A411CA1622168496811F051
:102290007F010170E08D401EE08580B2002819D1D9
:1022A0002068C06830F020002168C8602068C068DD
:1022B00030F480702168C8602068406940084000A0
:1022C00021684861202084F83A00200000F054FF83
:1022D000002002E0002000E0022032BD2DE9F8439A
:1022E00004002068016931F44051E068014320682E
:1022F0000161A5682069054360690543E0690543FC
:102300002068C168B448014029432068C160206842
:10231000416931F44071A069014320684161E0697D
:10232000B0F5004F40F0AC802068AC49884203D043
:102330002068AB49884251D100F0D5FF814600F0BA
:10234000D2FF804600F0CFFF070000F0CCFF060070
:1023500000F0C9FF192101FB09F961684900B9FBC7
:10236000F1F16422B1FBF2F2192101FB08F8616876
:102370004900B8FBF1F319214F4361684900B7FBED
:10238000F1F16427B1FBF7F7642101FB1733D900A2
:1023900032316423B1FBF3F35B0013F4F87313EBF6
:1023A000021319214E4361684900B6FBF1F219216D
:1023B000484361684900B0FBF1F06421B0FBF1F1E2
:1023C000642000FB1122D00032306421B0FBF1F018
:1023D00010F00700C31820688360FAE000F078FF6F
:1023E000814600F075FF804600F072FF070000F0A4
:1023F0006FFF060000F06CFF192101FB09F961680D
:102400004900B9FBF1F16422B1FBF2F2192101FBA1
:1024100008F861684900B8FBF1F319214F4361687E
:102420004900B7FBF1F16427B1FBF7F7642101FB29
:102430001733D90032316423B1FBF3F35B0013F49B
:10244000F87313EB021319214E4361684900B6FB80
:10245000F1F21921484361684900B0FBF1F06421B1
:10246000B0FBF1F1642000FB1122D0003230642176
:10247000B0FBF1F010F00700C31820688360A8E0FB
:1024800020685649884203D020685549884250D177
:1024900000F029FF814600F026FF804600F023FF70
:1024A000070000F020FF060000F01DFF192101FBCE
:1024B00009F961688900B9FBF1F16422B1FBF2F21C
:1024C000192101FB08F861688900B8FBF1F31921B3
:1024D0004F4361688900B7FBF1F16427B1FBF7F75F
:1024E000642101FB1733190132316423B1FBF3F38B
:1024F00013F0F00313EB021319214E4361688900B6
:10250000B6FBF1F21921484361688900B0FBF1F094
:102510006421B0FBF1F1642000FB11221001323084
:102520006421B0FBF1F010F00F00C3182068836045
:102530004FE000F0CDFE814600F0CAFE804600F07C
:10254000C7FE070000F0C4FE060000F0C1FE19211E
:1025500001FB09F961688900B9FBF1F16422B1FB63
:10256000F2F2192101FB08F861688900B8FBF1F368
:1025700019214F4361688900B7FBF1F16427B1FB72
:10258000F7F7642101FB1733190132316423B1FBE2
:10259000F3F313F0F00313EB021319214E436168B8
:1025A0008900B6FBF1F21921484361688900B0FB4C
:1025B000F1F06421B0FBF1F1642000FB1122100165
:1025C00032306421B0FBF1F010F00F00C318206826
:1025D0008360BDE8F1830000F369FFFF0010014054
:1025E0000014014080B5DFF88805DFF88815086021
:1025F0005FF4E130DFF87C1548600020DFF87415E7
:1026000088600020DFF86C15C8600020DFF86415D2
:1026100008610C20DFF85C1548610020DFF85415D4
:1026200088610020DFF84C15C861DFF84805FFF726
:10263000C5FB002801D000F093FF01BD80B5DFF895
:102640003805DFF8381508605FF4E130DFF82C1545
:1026500048600020DFF8241588600020DFF81C1592
:10266000C8600020DFF8141508610C20DFF80C1595
:1026700048610020DFF8041588610020DFF8FC14B1
:10268000C861DFF8F804FFF799FB002801D000F0DB
:1026900067FF01BD80B5DFF8E804DFF8E8140860E3
:1026A0005FF4E130DFF8DC1448600020DFF8D41478
:1026B00088600020DFF8CC14C8600020DFF8C41464
:1026C00008610C20DFF8BC1448610020DFF8B41466
:1026D00088610020DFF8AC14C861DFF8A804FFF7B8
:1026E0006DFB002801D000F03BFF01BD80B5DFF895
:1026F0009804DFF8981408605FF4E130DFF88C1478
:1027000048600020DFF8841488600020DFF87C1423
:10271000C8600020DFF8741408610C20DFF86C1426
:1027200048610020DFF8641488610020DFF85C1441
:10273000C861DFF85804FFF741FB002801D000F022
:102740000FFF01BD80B5DFF84804DFF848140860CA
:102750005FF4E130DFF83C1448600020DFF8341407
:1027600088600020DFF82C14C8600020DFF82414F3
:1027700008610C20DFF81C1448610020DFF81414F5
:1027800088610020DFF80C14C861DFF80804FFF747
:1027900015FB002801D000F0E3FE01BD10B586B0A6
:1027A00004006846142100F0DDFE2068DFF8C01345
:1027B000884232D100200590DFF8DC03006850F435
:1027C0000020DFF8D4130860DFF8CC03006810F4B1
:1027D00000200590059800200590DFF8C0030068F0
:1027E00050F00400DFF8B4130860DFF8B0030068AD
:1027F00010F00400059005984FF44060009002200E
:102800000190012002900320039008200490694663
:10281000DFF88C0300F0AAFEA8E12068DFF8581367
:10282000884252D100200590DFF86C03006850F414
:102830008010DFF864130860DFF85C03006810F4B0
:1028400080100590059800200590DFF8500300687F
:1028500050F00400DFF844130860DFF8400300681C
:1028600010F004000590059800200590DFF82C0377
:10287000006850F00800DFF824130860DFF81C033C
:10288000006810F00800059005984FF48050009003
:102890000220019001200290032003900820049060
:1028A0006946DFF8FC0200F061FE0420009002207F
:1028B00001900120029003200390082004906946B3
:1028C000DFF8E00200F052FE50E12068DFF8B012BD
:1028D000884240F0958000200590DFF8CC02006827
:1028E00050F01000DFF8C0120860DFF8BC0200688A
:1028F00010F010000590059800200590DFF89C026C
:10290000006850F00100DFF894120860DFF88C02D4
:10291000006810F00100059005984FF4C060009029
:1029200002200190012002900320039007200490D0
:102930006946DFF8780200F019FEDFF87402DFF86C
:10294000741208605FF00060DFF868124860402091
:10295000DFF8601288600020DFF85812C8604FF47A
:102960008060DFF8501208610020DFF848124861EB
:102970000020DFF8401288610020DFF83812C861BB
:102980000020DFF8301208620020DFF828124862C9
:10299000884800F04BF9002801D000F0E1FD85489F
:1029A0002063844884638448844908605FF0006041
:1029B0008249486000208149886000207F49C860C2
:1029C0004FF480607D49086100207C494861002007
:1029D0007A4988614FF480707849C861002077494E
:1029E0000862002075494862744800F01FF9002809
:1029F00001D000F0B5FD7148606370488463B5E0B4
:102A00002068614988422AD1002005906248006808
:102A100050F40030604908605F48006810F40030EE
:102A200005900598002005905C48006850F008006B
:102A30005A4908605948006810F008000590059848
:102A4000602000900220019001200290032003905A
:102A5000072004906946534800F088FD86E020680E
:102A60004B49884240F08280002005904A48006827
:102A700050F48020484908604748006810F48020DE
:102A800005900598002005904448006850F0020029
:102A9000424908604148006810F00200059005981E
:102AA0004FF440600090022001900120029003202A
:102AB0000390072004906946414800F057FD4148C3
:102AC000414908605FF000603F49486000203E498E
:102AD000886000203C49C8604FF480603A49086132
:102AE0000020394948610020374988614FF48070DF
:102AF0003549C861002034490862002032494862E3
:102B0000314800F093F8002801D000F029FD2E484C
:102B100060632D4884632D482D4908605FF0006094
:102B20002B49486040202A49886000202849C86015
:102B30004FF4806026490861002025494861002043
:102B40002349886100202249C86100202049086289
:102B500000201F4948621E4800F068F8002801D094
:102B600000F0FEFC1A4820631948846306B010BDCB
:102B7000004C0040DC220020005000401C230020BC
:102B8000001001405C230020004400409C230020F2
:102B900000480040DC23002040380240303802402A
:102BA00000080240000C024044380240000002408D
:102BB000B8640240042000204064024064200020E9
:102BC0000004024028600240C420002058600240F7
:102BD000242100200168096802681268D20705D51F
:102BE000026852687FF0010203681A600268126886
:102BF000920705D5026852687FF0020203681A60E6
:102C000002681268520705D5026852687FF0040214
:102C100003681A6002681268120705D50268D26854
:102C20007FF0080203681A607047010070B5040065
:102C3000002600F05BFC0500002C01D1012065E0BE
:102C4000606A0028002084F83400022084F83500EF
:102C5000206800684008400021680860206800681B
:102C6000C0070BD500F042FC401B0628F6D32020FD
:102C70006065032084F83500032047E02068016880
:102C8000DFF84C0401406268A0680243E068024338
:102C90002069024360690243A0690243E06902437C
:102CA000206A02431143606A042803D1E26A206B60
:102CB000024311432068016020684669F608F60067
:102CC000606A0643606A042810D1A06A0643E06A7D
:102CD00000280BD0200000F001FA002806D0402088
:102CE0006065012084F8350001200FE0206846610E
:102CF000200000F0D5F901003F22E06D82408A609B
:102D000000206065012084F83500002070BD2DE9A9
:102D1000F84304000D0016001F005FF00008D4F80F
:102D2000589094F83400012801D1022039E00120A4
:102D300084F8340094F8350001282BD1022084F85F
:102D40003500002060653B0032002900200000F0C3
:102D500090F93F21E06D8140C9F8081020680068B3
:102D600050F01600216808602068406950F080002B
:102D700021684861206C002805D02068006850F068
:102D80000800216808602068006850F00100216890
:102D9000086004E0002084F83400022080464046A9
:102DA000C0B2BDE8F28370B50400A56D00F09EFBD3
:102DB000060094F83500022806D0802060650020C7
:102DC00084F8340001203BE02068006830F01600F1
:102DD000216808602068406930F0800021684861FF
:102DE000206C002802D1A06C002805D02068006863
:102DF00030F0080021680860206800684008400042
:102E00002168086020680068C0070ED500F06EFBDE
:102E1000801B0628F6D320206065002084F834004B
:102E2000032084F8350003200AE03F21E06D814053
:102E3000A960002084F83400012084F835000020C7
:102E400070BD010091F83500022803D0802048654C
:102E5000012009E0052081F8350008680068400875
:102E600040000A68106000207047F8B50400002098
:102E70000090DFF8600200684FF41651B0FBF1F5E6
:102E8000A66D37680821E06D81400F4211D020689F
:102E9000006840070DD52068006830F00400216804
:102EA00008600821E06D8140B160606D50F0010064
:102EB0006065E06D3900C140C8070BD520684069E6
:102EC000000607D50121E06D8140B160606D50F0D2
:102ED000020060650421E06D81400F420BD0206844
:102EE0000068800707D50421E06D8140B160606D06
:102EF00050F0040060651021E06D81400F422DD03C
:102F000020680068000729D51021E06D8140B1607C
:102F100020680068400311D520680068000306D4CB
:102F2000206C00281AD02000216C884716E0A06C85
:102F3000002813D02000A16C88470FE020680068AB
:102F4000C00505D42068006830F0080021680860DA
:102F5000206C002802D02000216C88472021E06DE1
:102F600081400F4260D020680068C0065CD52021F7
:102F7000E06D8140B16094F83500052828D12068C3
:102F8000006830F01600216808602068406930F061
:102F9000800021684861206C002802D1A06C0028C4
:102FA00005D02068006830F00800216808603F21E3
:102FB000E06D8140B160002084F83400012084F885
:102FC0003500206D002802D02000216D88474FE099
:102FD00020680068400311D520680068000306D40B
:102FE000606C002820D02000616C88471CE0E06BFA
:102FF000002819D02000E16B884715E020680068A0
:10300000C0050BD42068006830F01000216808600B
:10301000002084F83400012084F83500E06B00289B
:1030200002D02000E16B8847606D002820D0606DE1
:10303000C00717D5052084F83500206800684008CF
:103040004000216808600098401C0090854203D32E
:1030500020680068C007F6D4002084F834000120FE
:1030600084F83500E06C002802D02000E16C88472D
:10307000F1BD30B40468246834F4802405682C6001
:10308000046863608468402C04D10468A26004680A
:10309000E16003E00468A1600468E26030BC70474E
:1030A000017801F0FF0110391822B1FBF2F10A4A50
:1030B000525CC265042905D30268920A9202121D6D
:1030C000826503E00268920A92028265806D704711
:1030D0003F8010F000000020305B000810B40200B8
:1030E0000020936A9169002916D1002B05D0022B8C
:1030F00003D008D3032B0DD00DE0D16AC90101D54F
:103100000121080035E0D16AB1F1C07F01D1012170
:1031100008002EE02DE02CE09169B1F5005F18D198
:10312000002B05D0022B03D005D3032B09D00FE0D1
:10313000012108001DE0D16AC90101D50121080063
:1031400017E0D16AB1F1C07F01D10121080010E080
:103150000FE019000029022902D9C91E03D008E096
:103160000121080005E0D16AC90101D5012108004B
:10317000FFE7C0B210BC704770477047704701004E
:1031800070B504000D00002C01D101209CE05B48CB
:10319000006810F00F00A84209D25848057057483F
:1031A000006810F00F00A84201D001208CE02078C8
:1031B000800719D52078400705D55148006850F49C
:1031C000E0504F4908602078000705D54C4800685A
:1031D00050F460404A4908604948016831F0F00104
:1031E000A0680143464801602078C00736D5606872
:1031F000012805D143480068800313D4012063E00F
:103200006068022802D06068032805D13D48006844
:10321000800107D4012057E03A480068800701D4B4
:10322000012051E03648016889088900606801433F
:103230003348016000F05AF906003148006810F088
:103240000C006168B0EB810F08D000F04FF9801BD3
:1032500041F289318842F0D3032035E027480068E5
:1032600010F00F00854209D22448057023480068F9
:1032700010F00F00A84201D0012025E0207840077F
:1032800007D51F48016831F4E051E06801431C484C
:1032900001602078000708D51948006830F46040C4
:1032A000216950EAC1001649086000F033F8164958
:1032B000134A1268C2F30312895CC84013490860BC
:1032C000002000F002F9002070BD1048006870472F
:1032D00080B5FFF7FAFF0E49094A1268C2F382224D
:1032E000895CC84002BD80B5FFF7EFFF0849044A7A
:1032F0001268C2F34232895CC84002BD003C024001
:103300000838024000380240045B0008000000203A
:10331000385B0008F0B500240025002600271E4871
:10332000006810F00C00002804D0042804D00828FD
:1033300004D02FE019482EE019482CE01948006805
:1033400010F03F0004001748006840020CD51548F3
:103350000068C0F388101249A1FB0001220000237D
:1033600000F04EFA05000BE00E480068C0F388102C
:103370000A49A1FB00012200002300F041FA0500E8
:1033800008480068C0F30140401C40000600B5FB3F
:10339000F6F000E00148F0BD083802400024F400D7
:1033A00000127A000438024000B585B000F040FBFE
:1033B00000F05EFBFCF712FF63480321049100213B
:1033C00003914FF480710291019002210091022338
:1033D00010F57F7200210FF21D10FEF7D1F8FCF7F7
:1033E000B4FFFEE780B592B006A8302100F0BAF82D
:1033F00001A8142100F0B6F800200090534801689D
:1034000051F080510160006810F0805000900098E9
:10341000002000904E48016851F48041016000682E
:1034200010F4804000900098012006905FF48030F6
:10343000079002200C905FF480000D9004200E9005
:10344000A8200F90022010900420119006A800F0F0
:1034500029FB002801D000F083F80F200190022002
:103460000290002003904FF4A05004904FF480503D
:103470000590052101A8FFF783FE002801D000F088
:103480006FF813B000BD80B500220121142000F0B8
:103490004DFD142000F05FFD00220121252000F0E9
:1034A00045FD252000F057FD00220121262000F0D7
:1034B0003DFD262000F04FFD00220121272000F0D5
:1034C00035FD272000F047FD01BD38B50400214837
:1034D0000078002808D0FFF7F8FE05004FF47A7056
:1034E000B5FBF0F0FDF70AFD002032BD80B5FEF718
:1034F0004DFB02BD10B50400FFF774FF00F03CFD6A
:1035000000F09EFE00F0E4FEFFF7C4F8FFF7EEF8CF
:10351000FFF718F9FFF792F8FFF764F800F0BFFF24
:1035200000F048FF01F062F8FFF7ADFF0A48FDF731
:10353000E5FC2021094800F036F90023052200218E
:103540000020FEF7CDFAF4E7940F00204038024047
:10355000007000401525002040900200000002404D
:10356000FEE70A00002201F0F7B80100F8B40023DA
:10357000002400250026102E80F006810122B24092
:1035800013000A681A4014009C4240F0FB804A680D
:10359000022A02D04A68122A1ED13200D20800EB59
:1035A0008202176A5FF00F0C16F00702D2B2920087
:1035B0001CFA02FC37EA0C07D1F810C016F007021B
:1035C000D2B292001CFA02FC5CEA07073D0032000E
:1035D000D20800EB8202156207685FF0030C32002C
:1035E000D2B252001CFA02FC37EA0C0791F804C070
:1035F0001CF0030C3200D2B252001CFA02FC5CEA4E
:10360000070707604A68012A08D04A68022A05D0DD
:103610004A68112A02D04A68122A24D185685FF0CC
:10362000030C3200D2B252001CFA02FC35EA0C053F
:10363000D1F80CC03200D2B252001CFA02FC5CEA93
:103640000505856042685FF0010C1CFA06FC32EA51
:103650000C02D1F804C0CCF3001C1CFA06FC5CEA96
:10366000020217004760C5685FF0030C3200D2B257
:1036700052001CFA02FC35EA0C05D1F808C03200F1
:10368000D2B252001CFA02FC5CEA0505C5604A6829
:10369000D20077D500220092DFF82C21126852F474
:1036A0008042DFF824713A60474A126812F480427F
:1036B0000092009A454A3700BF0852F827705FF021
:1036C0000F0C16F00302D2B292001CFA02FC37EA89
:1036D0000C073F4A904201D1002523E03D4A904229
:1036E00001D101251EE03C4A904201D1022519E09A
:1036F0003A4A904201D1032514E0394A904201D15F
:1037000004250FE0374A904201D105250AE0364AE8
:10371000904201D1062505E0344A904201D10725A7
:1037200000E00825EDB216F00302D2B292009540F7
:103730002F43264A3500AD0842F825702C4A1268FE
:10374000A2434D68ED0300D52243294D2A60294D3F
:103750002D68A5434F68BF0300D52543254A156052
:10376000254A1268A2434F68FF0200D52243224D2A
:103770002A60224D2D68A5434F68BF0200D525431E
:103780001E4A1560761CF6E6F1BC70471300DBB2EA
:10379000002B03D00B009BB2836103E00B009BB2B4
:1037A0001B048361704743690A0092B213400A0008
:1037B00092B2934204D10A0092B21204826102E0F2
:1037C0000A0092B2826170474438024008380140D2
:1037D000000002400004024000080240000C0240C9
:1037E000001002400014024000180240001C024079
:1037F000003C0140043C0140083C01400C3C0140BD
:10380000BBBBE1B1B2F5803F80F07E80022A1ED9B9
:103810008C46B1FBF2F102FB11C31B0443EA1043D7
:10382000B3FBF2FC02FB1C3380B240EA0343B3FB60
:10383000F2F002FB103240EA0C4000237047022AEB
:1038400005D98446B0FBF2F002FB10C270474AB1C2
:1038500005D100F0010249085FEA300070470022FC
:103860000023704700F092BF0B00020000210020EF
:103870007047904271EB030CF6D3B3F5803F2FD223
:10388000F0B5B3FA83F7B1FA81F4A7F10F0E3D1B3F
:103890005340CEF1200602FA0EF2F3415340B5F147
:1038A0000F0746D80F3C2C444140C4F12006A040ED
:1038B000F1414140B1FBF3F603FB1611A2FB0645B3
:1038C000001BA94102D2761E8018594180EA0102EC
:1038D00021FA0EF362FA0EF200215A403046F0BD92
:1038E00030B4B1FBF3FC03FB1C11A2FB0C45001B25
:1038F000A94103D2ACF1010C8018594130BC0246F9
:103900000B46604600217047B2F1807F65D3F0B569
:10391000B2FA82F7B1FA81F4C7F10F063D1B22FA21
:1039200006F307F1110EF24120355A40B5F10F07A9
:10393000B8D94140C4F12006A040F1414140B1FB5B
:10394000F3FC03FB1C11A2FB0C45001BA94103D295
:10395000BCF1010C801859410F2F12D30F3FC9033E
:1039600041EA5041B1FBF3F603FB1611A2FB0645F9
:10397000D4EBC030A94102D2761E8018594146EAE4
:10398000CC3C07B34140C7F12006B840F14141406B
:10399000B1FBF3F603FB1611A2FB0645001BA94180
:1039A00002D2761E8018594180EA010221FA0EF3F4
:1039B000C7F1200462FA0EF20CFA07F05A402CFA12
:1039C00004F13043F0BD80EA010221FA0EF3002138
:1039D00062FA0EF260465A40F0BD8C46B1FBF2F13D
:1039E00002FB11C31B0243EA1063B3FBF2FC02FBB0
:1039F0001C331B024CEA002043EA1063B3FBF2FCC9
:103A000002FB1C331B024CEA002043EA1063B3FBA9
:103A1000F2FC02FB1C331B024CEA002043EA106359
:103A2000B3FBF2FC02FB1C324CEA0020002370477F
:103A300080B50E48006850F400700C4908600B48CF
:103A4000006850F48060094908600848006850F434
:103A5000807006490860032000F062FA0020FFF73A
:103A600034FD00F095FE002002BD0000003C024045
:103A700072B6704762B67047EFF3108072B6704747
:103A800080F31088704730BF704720BF7047B0FA8E
:103A900080F0704790FAA0F0B0FA80F0704790FA8A
:103AA000A0F070477CB50400002C01D10120C3E1D7
:103AB0002078C0076ED5DFF88403006810F00C0092
:103AC00004280BD0DFF87403006810F00C000828FD
:103AD0000ED1DFF86C030068400209D5DFF86403FB
:103AE0000068800356D56068002853D10120A3E107
:103AF0006068B0F5803F08D1DFF84803006850F4F3
:103B00008030DFF84013086024E06068B0F5A02F33
:103B100010D1DFF83003006850F48020DFF8241360
:103B20000860DFF82003006850F48030DFF81413D9
:103B300008600FE0DFF80C03006830F48030DFF835
:103B400004130860DFF8FC02006830F48020DFF81E
:103B5000F4120860606800280ED0FFF7C7FC05006B
:103B6000DFF8E0020068800314D4FFF7BFFC401BBD
:103B70006528F5D303205FE1FFF7B8FC0500B148E5
:103B80000068800306D5FFF7B1FC401B6528F6D31B
:103B9000032051E12078800750D5A848006810F034
:103BA0000C0F09D0A548006810F00C00082816D1A9
:103BB000A3480068400212D4A2480068800704D5D8
:103BC000E068012801D0012036E19E48006830F00D
:103BD000F800216950EAC1009A4908602EE0E068C7
:103BE00000281AD0012098490860FFF77FFC0500E3
:103BF00094480068800706D4FFF778FC401B032830
:103C0000F6D3032018E18F48006830F0F8002169EE
:103C100050EAC1008B49086010E000208A49086022
:103C2000FFF764FC050087480068800706D5FFF7AA
:103C30005DFC401B0328F6D30320FDE0207800073D
:103C400024D56069002810D0012080490860FFF762
:103C50004DFC05007E480068800717D4FFF746FC3E
:103C6000401B0328F6D30320E6E0002077490860D4
:103C7000FFF73CFC050076480068800706D5FFF793
:103C800035FC401B0328F6D30320D5E020784007FD
:103C900040F1808000266F480068C0000FD40020EB
:103CA00000906C48006850F080506A49086069488C
:103CB000006810F0805000900098012006006648CF
:103CC0000068C00513D46448006850F480706249ED
:103CD0000860FFF70BFC05005F480068C00506D4CC
:103CE000FFF704FC401B0328F6D30320A4E0A068E0
:103CF000012806D15948006850F001005749086072
:103D00001BE0A06805280CD15448006850F004005E
:103D1000524908605148006850F001004F4908605E
:103D20000BE04E480068400840004C4908604B4892
:103D3000006830F0040049490860A06800280FD0EE
:103D4000FFF7D4FB050045480068800718D4FFF74B
:103D5000CDFB401B41F289318842F4D303206BE054
:103D6000FFF7C4FB05003D480068800708D5FFF752
:103D7000BDFB401B41F289318842F4D303205BE054
:103D80003000C0B2012805D13248006830F08050C0
:103D900030490860A06900284DD02848006810F01C
:103DA0000C00082845D0A069022831D100202C49F8
:103DB0000860FFF79BFB060022480068800106D5DB
:103DC000FFF794FB801B0328F6D3032034E0E1695E
:103DD000206A0143606A51EA8011A06A4008401ECF
:103DE00051EA0041E06A51EA006115480160012092
:103DF0001B490860FFF77AFB050012480068800144
:103E000019D4FFF773FB401B0328F6D3032013E0FC
:103E1000002013490860FFF769FB050009480068A6
:103E2000800108D5FFF762FB401B0328F6D303206F
:103E300002E0012000E0002076BD00BF083802400B
:103E4000043802400038024000004742800E4742DA
:103E50007438024040380240007000407038024020
:103E60006000474210F00703DFF8F8100A684FF6C9
:103E7000FF010A40DFF8F01051EA03210A43DFF89E
:103E8000E4100A607047DFF8DC000068C0F302202D
:103E90007047010049B200290AD4012210F01F0125
:103EA0008A40DFF8C81003005BB25B0941F82320A9
:103EB000704710B4020052B2002A05D40A012C4BFC
:103EC000040064B21A5508E00A012A4B040064B2E7
:103ED00014F00F04234403F8042C10BC704770B492
:103EE000030013F00704D4F10700052801D30420D0
:103EF00001E0D4F10700251D072D01D2002500E0C7
:103F0000E51E012616FA00F0401E0140A9400120DE
:103F100010FA05F56D1E2A401143080070BC704769
:103F200010B504002000FFF79DFF10BD2DE9F04102
:103F300004000D0016000027FFF7A5FF80463200A1
:103F400029004046FFF7CBFF0100200040B2FFF7F9
:103F5000B0FFBDE8F08110B50400200040B2FFF7CB
:103F600098FF10BD0CED00E00000FA0500E100E054
:103F700000E400E018ED00E080B586B0684614214A
:103F8000FFF7F0FA00200590A648006850F01000F6
:103F9000A4490860A348006810F010000590059837
:103FA000002005909F48006850F004009D4908607B
:103FB0009C48006810F004000590059800200590CA
:103FC0009848006850F020009649086095480068BD
:103FD00010F0200005900598002005909148006899
:103FE00050F080008F4908608E48006810F0800013
:103FF00005900598002005908A48006850F001005F
:10400000884908608748006810F00100059005980D
:10401000002005908348006850F002008149086044
:104020008048006810F00200059005980020059077
:104030007C48006850F008007A49086079480068B8
:1040400010F0080005900598002204217648FFF73B
:104050009DFB002240F255517448FFF797FB012267
:1040600001217348FFF792FB012220217148FFF7DD
:104070008DFB01224FF460416B48FFF787FB012263
:104080004FF410416C48FFF781FB00224FF4C2410E
:104090006A48FFF77BFB042000900120019000207C
:1040A00002900220039069465F48FFF75FFA5120B3
:1040B0000090002001900220029069465A48FFF7C4
:1040C00055FA2020009000200190012002906946BE
:1040D0005548FFF74BFA42F206000090002001908D
:1040E0000220029069465248FFF740FA40F25550CC
:1040F0000090012001900220029002200390694666
:104100004A48FFF733FA2020009000200190012058
:10411000029069464548FFF729FA012000900120E6
:104120000190012002900220039069464048FFF769
:104130001DFA08200090002001900120029069469D
:104140003C48FFF713FA2020009001200190002046
:1041500002900220039069463648FFF707FA0320D1
:104160000090002001900120029069463248FFF73C
:10417000FDF94FF460400090012001900220029070
:104180000320039069462848FFF7F0F94FF41040E8
:1041900000900120019002200290032003906946C4
:1041A0002548FFF7E3F94FF4C64000900020019046
:1041B0000220029069462048FFF7D8F94FF480703A
:1041C0000090012001900020029000200390694699
:1041D0001A48FFF7CBF94FF480500090002001906F
:1041E0000020029069461548FFF7C0F94FF40050CF
:1041F0000090012001900120029000200390694668
:104200000E48FFF7B3F94FF4804000900120019071
:10421000022002900020039069460848FFF7A6F9A3
:1042200007B000BD303802400010024000140240C8
:10423000000802400000024000040240000C02405E
:1042400080B5002000902148006850F400101F49FC
:1042500008601E48006810F40010009000980020CC
:1042600000901A48006850F4800018490860174808
:10427000006810F4800000900098002200210C20BB
:10428000FFF754FE0C20FFF766FE002200210E20EF
:10429000FFF74CFE0E20FFF75EFE002200213A20C1
:1042A000FFF744FE3A20FFF756FE002200213B2094
:1042B000FFF73CFE3B20FFF74EFE00220021462088
:1042C000FFF734FE4620FFF746FE01BD30380240BE
:1042D00080B53348334908600320324948600020E4
:1042E0003049886000202F49C8605FF400202D49C4
:1042F00008615FF440102B49486100202949087685
:104300000120284948760020264988760020254942
:10431000C8760020234908770120224948772148A0
:1043200000F05AFA002801D0FFF71AF901BD10B5C4
:1043300086B0040001A81421FFF714F92068184979
:1043400088422AD1002000901748006850F0007081
:10435000154908601448006810F00070009000983B
:10436000002000901148006850F001000F490860DB
:104370000E48006810F00100009000984FF4C05003
:104380000190022002900020039003200490092055
:10439000059001A90648FFF7E9F806B010BD000036
:1043A000006400405424002040380240303802406D
:1043B0000000024000B591B08248D0E90023CDE969
:1043C000002302A81C21FFF7CDF809A82021FFF740
:1043D000C9F87D487D49086040F28F607B4948609C
:1043E00000207A49886040F2CF707849C860002088
:1043F0007649086100207549486100207349886149
:10440000724800F079FC002801D0FFF7A9F80020DD
:1044100000900020019069466C4800F0FBFE0028E7
:1044200001D0FFF79DF8602002900020039000204B
:1044300004900020059000200690002007900020A6
:104440000890002202A9614800F072FC002801D007
:10445000FFF786F8042202A95C4800F069FC0028F6
:1044600001D0FFF77DF80020099000200A9000207D
:104470000B9000200C9000200D904FF400500E90F7
:104480000020109009A9514800F0EBFE002801D04F
:10449000FFF766F84D4800F06AF811B000BD80B52E
:1044A00086B002A81021FFF75DF84948D0E9002343
:1044B000CDE90023474848490860472046494860FD
:1044C00000204549886042F20F704349C8600020CF
:1044D000414908610020404988613F4800F0F0FBF5
:1044E000002801D0FFF73CF84FF48050029002A959
:1044F000394800F09DFC002801D0FFF731F800207A
:104500000090002001906946334800F083FE0028A7
:1045100001D0FFF725F807B000BD81B001682A4A35
:1045200091420DD1002100912C49096851F00101FF
:104530002A4A11602949096811F001010091009986
:1045400001B0704781B00168224A91420DD100212B
:1045500000912349096851F00201214A1160204964
:10456000096811F002010091009901B0704710B57F
:1045700086B0040001A81421FEF7F4FF2068124958
:1045800088421CD1002000901648006850F01000AE
:10459000144908601348006810F01000009000985B
:1045A0004FF4206001900220029000200390002030
:1045B00004900120059001A90B48FEF7D7FF06B033
:1045C00010BD0000405B0008000001405C2200209C
:1045D000485B0008000400409C2200204438024050
:1045E000403802403038024000100240F8B56846BA
:1045F0001021FEF7B7FF5048504908605FF4803043
:104600004E49486000204D49886000204B490861B0
:1046100001204A4908760020484981F820000020FE
:104620004649C86246484549886200204349C860F7
:1046300001204249C8610120404981F83000012031
:104640003E4948613D4800F03BFE002801D0FEF79E
:1046500087FF04200090012001900320029069460A
:10466000364800F060FE002801D0FEF779FF05B063
:1046700000BD10B586B0040001A81421FEF772FF3A
:1046800020682D49884254D1002000902D480068B0
:1046900050F400702B4908602A48006810F400703C
:1046A00000900098002000902748006850F001001A
:1046B000254908602448006810F001000090009827
:1046C00010200190032002900020039001A91F48B0
:1046D000FEF74CFF1E481F4908605FF000701D493F
:1046E000486000201B49886000201A49C8604FF4C8
:1046F0008060184908614FF48050164948614FF4B2
:104700008040144988614FF480701249C8615FF499
:1047100080301049086200200E4948620D48FEF7BB
:1047200085FA002801D0FEF71BFF0A48A06309485C
:10473000846306B010BD000000210140D421002098
:104740000100000F443802403038024000000240AF
:1047500058640240441F002000B500BF1300964675
:104760009446103928BFA0E80C50FAD85FEA417C83
:1047700028BF0CC048BF40F8042BC90728BF20F849
:10478000022B48BF00F8012B00BD18007047F00055
:1047900081B0002000900E48006850F480400C4921
:1047A00008600B48006810F48040009000980020DA
:1047B00000900848006850F080500649086005489D
:1047C000006810F080500090009801B0704700BF62
:1047D000443802404038024070B50400002C01D13A
:1047E0000120AEE094F82000002802D12000FFF75D
:1047F0009EFD2068006830F0020021680860FEF726
:1048000075FE05002068406880070DD5FEF76EFE36
:10481000401B0B28F6D3606A50F40030606205201C
:1048200084F8200001208CE02068006850F001002E
:1048300021680860FEF75AFE060020684068C0073D
:104840000DD4FEF753FE801B0B28F6D3606A50F49C
:1048500000306062052084F82000012071E0207E95
:10486000012806D12068006850F0800021680860A7
:1048700005E02068006830F0800021680860607EF4
:10488000012806D12068006850F0400021680860C7
:1048900005E02068006830F0400021680860A07ED4
:1048A000012806D12068006850F0200021680860C7
:1048B00005E02068006830F0200021680860E07E94
:1048C000012806D12068006830F0100021680860D7
:1048D00005E02068006850F0100021680860207F23
:1048E000012806D12068006850F00800216808609F
:1048F00005E02068006830F0080021680860607FEB
:10490000012806D12068006850F004002168086082
:1049100005E02068006830F0040021680860A168A4
:10492000E068014320690143606901436068401EFB
:1049300001432068C16100206062012084F82000EA
:10494000002070BD70B4040094F820502800C0B25C
:10495000012804D02800C0B2022840F09880002925
:104960000AD12068C06810F0030F10D1606A50F4BB
:104970000010606201208FE02068006910F0030FD2
:1049800005D1606A50F400106062012084E0206864
:104990000E013044D0F8B00110F00400906090682F
:1049A000002807D120680E013044D0F8B001400D36
:1049B000106006E020680E013044D0F8B001C00855
:1049C000506020680E013044D0F8B001C0F34000C0
:1049D000D06020680E013044D0F8B40110F00F0010
:1049E000106120680E013044D0F8B401C0F30720F4
:1049F000906120680E013044D0F8B401000C506181
:104A000020680E013044D0F8B801187020680E01FB
:104A10003044D0F8B801000A587020680E013044C4
:104A2000D0F8B801000C987020680E013044D0F81E
:104A3000B801000ED87020680E013044D0F8BC01D7
:104A4000187120680E013044D0F8BC01000A58717A
:104A500020680E013044D0F8BC01000C9871206829
:104A60000E013044D0F8BC01000ED871002906D1E7
:104A70002068C06850F020002668F06005E02068DB
:104A8000006950F0200026683061002004E0606A70
:104A900050F480206062012070BC70472DE9F84F0F
:104AA0000500002428684669286847682868D0F807
:104AB00008802868D0F80C902868D0F810A02868E2
:104AC000D0F818B0F00755D55FEAC87018D50120A6
:104AD000296888605FEA887003D5280000F09AFD95
:104AE0000EE05FEA487002D554F4006408E05FEA23
:104AF000087002D554F4805402E0280000F08BFDC9
:104B00005FEAC85019D54FF48070296888605FEA61
:104B1000885003D5280000F07FFD0EE05FEA485082
:104B200002D554F4005408E05FEA085002D554F46A
:104B3000804402E0280000F070FD5FEAC83019D51B
:104B40005FF48030296888605FEA883003D52800E8
:104B500000F064FD0EE05FEA483002D554F40044F2
:104B600008E05FEA083002D554F4803402E02800FF
:104B700000F055FD300707D55FEAC96004D554F44D
:104B8000007410202968C860700708D55FEA0970B2
:104B900005D508202968C860280000F057FDB00737
:104BA00007D52868C06810F0030F02D0280000F075
:104BB00037FD700607D55FEACA6004D554F48064F7
:104BC000102029680861B00608D55FEA0A7005D58B
:104BD000082029680861280000F044FDF00607D588
:104BE0002868006910F0030F02D0280000F03BFD98
:104BF000B00307D5F80605D51020296848602800BD
:104C000000F032FDF00307D5380705D508202968E4
:104C10004860280000F029FD300447D5780742D5C8
:104C2000F00506D51BF00100C0B2002801D054F0F9
:104C30000104B00504D55FEA8B7001D554F002047D
:104C4000700504D55FEA4B7001D554F004043005BB
:104C500029D51BF0700F26D01BF0700010280AD049
:104C600020280BD030280CD040280DD050280ED052
:104C700060280FD011E054F008040EE054F0100446
:104C80000BE054F0200408E054F0400405E054F038
:104C9000800402E054F48074FFE72868806930F0F3
:104CA000700029688861042029684860002C05D0BC
:104CB000686A20436862280000F0D8FCBDE8F18FE4
:104CC00010B50400002C01D1012014E094F83D003F
:104CD000002805D1002084F83C002000FFF732FCBA
:104CE000022084F83D00211D206800F017F9012002
:104CF00084F83D00002010BD10B50400002C01D147
:104D0000012014E094F83D00002805D1002084F82B
:104D10003C002000FFF701FC022084F83D00211D2B
:104D2000206800F0FBF8012084F83D00002010BD51
:104D300070B504000D00160094F83C00012801D164
:104D4000022074E0012084F83C00022084F83D0039
:104D50003000002806D004281BD0082831D00C28A9
:104D600046D05DE02900206800F03BF920688069AA
:104D700050F00800216888612068806930F00400E4
:104D80002168886120688169286901432068816100
:104D900046E02900206800F057F92068806950F447
:104DA0000060216888612068806930F48060216833
:104DB000886120688069296950EA0120216888613A
:104DC0002EE02900206800F077F92068C06950F0D3
:104DD00008002168C8612068C06930F004002168BB
:104DE000C8612068C169286901432068C16117E072
:104DF0002900206800F097F92068C06950F400602D
:104E00002168C8612068C06930F480602168C86189
:104E10002068C069296950EA01202168C861FFE75C
:104E2000012084F83D00002084F83C00002070BD83
:104E300070B504000D0094F83C00012801D1022057
:104E40006BE0012084F83C00022084F83D002068DB
:104E5000866836F0770636F47F46206886602868D4
:104E600000284ED010284CD020284AD0302848D0D6
:104E700040283CD0502826D060282ED0702807D05B
:104E8000B0F5805F03D0B0F5005F0FD03EE03DE0AD
:104E9000EB686A68A968206800F0AFF9206880684C
:104EA00050F077000600206886602FE0EB686A68A3
:104EB000A968206800F0A1F92068806850F480405B
:104EC0002168886022E0EA686968206800F068F973
:104ED0005021206800F089F918E0EA6869682068C4
:104EE00000F070F96021206800F07FF90EE0EA68B8
:104EF0006968206800F054F94021206800F075F9D5
:104F000004E02968206800F070F9FFE7012084F8C8
:104F10003D00002084F83C00002070BD0368DFF8ED
:104F20005422904212D0B0F1804F0FD0DFF84822C7
:104F300090420BD0DFF84422904207D0DFF84022A5
:104F4000904203D0DFF83C22904203D133F070034B
:104F50004A681343DFF81C2290422AD0B0F1804FF8
:104F600027D0DFF81422904223D0DFF8102290429D
:104F70001FD0DFF80C2290421BD0DFF808229042AD
:104F800017D0DFF80422904213D0DFF800229042BD
:104F90000FD0DFF8FC2190420BD0DFF8F8219042CF
:104FA00007D0DFF8F421904203D0DFF8F0219042DF
:104FB00003D133F44073CA68134333F080034A6962
:104FC000134303608A68C2620A688262694A904237
:104FD00002D06C4A904201D10A6902630122426107
:104FE000704730B4026A520852000262056A436890
:104FF000846934F07004A408A4000A68144335F0EE
:1050000002058A6815435B4A904202D05D4A90428D
:1050100005D135F00805CA68154335F00405554A31
:10502000904202D0574A904207D133F4807333F450
:1050300000734A6913438A691343436084614A6871
:105040004263056230BC704730B4026A32F010022D
:105050000262046A4268836933F4E04333F44073C4
:105060000D6853EA052334F020048D6854EA0514D2
:10507000404DA84202D0434DA84206D134F08004EE
:10508000CD6854EA051434F040043A4DA84202D0E9
:105090003C4DA84209D132F4806232F400624D697D
:1050A00052EA85028D6952EA8502426083614D6849
:1050B0008563046230BC704730B4026A32F4807297
:1050C0000262056A4368C46934F07004A408A4004D
:1050D0000A68144335F400758A6855EA0225254AA2
:1050E000904202D0274A904206D135F40065CA6842
:1050F00055EA022535F480651E4A904202D0214AC5
:10510000904209D133F4805333F400534A6953EA8F
:1051100002138A6953EA02134360C4614A68C26396
:10512000056230BC704730B4026A32F480520262C9
:10513000036A4468C26932F4E04232F440720D6896
:1051400052EA052233F400538D6853EA0533094DC2
:10515000A84202D00B4DA84204D134F480444D69DA
:1051600054EA85144460C2614D680564036230BC32
:1051700070470000000001400004004000080040AB
:10518000000C004000040140004001400044014088
:105190000048014000180040001C00400020004072
:1051A00010B4046A036A5B085B000362836933F02E
:1051B000F00353EA021334F00A040C4383610462DF
:1051C00010BC704710B4036A33F0100303628369A4
:1051D000046A33F4704353EA023334F0A00454EA0F
:1051E00001148361046210BC7047836833F070035C
:1051F00051F0070213438360704730B4846834F47D
:105200007F4452EA010555EA03252C43846030BCF3
:105210007047010010B4020092F83C00012801D14F
:1052200002201CE0012082F83C00022082F83D00B0
:10523000106843681068846833F07003086803439B
:1052400034F0800448680443106843601068846048
:10525000012082F83D00002082F83C00002010BCB4
:1052600070470200002392F83C00012801D102207F
:1052700024E0012082F83C001B0A1B02C86803439B
:1052800033F440738868034333F48063486803430E
:1052900033F400630868034333F48053086903431D
:1052A00033F400534869034333F48043C86903432C
:1052B00010684364002082F83C0000207047010021
:1052C00038B504000025002C01D101202AE0A06A95
:1052D000DFF82C138842206C002807D12000FFF74C
:1052E000C8F900206064002084F83C00206CC006EF
:1052F00011D4206C30F4885050F00200206420005B
:1053000000F0D0F800206064206C30F0020050F013
:105310000100206401E001200500002084F83C0029
:105320002800C0B232BD38B402000020009092F8CC
:105330003C00012801D10220B2E0012082F83C00AB
:1053400008680A2818D31068C368072408680A3850
:10535000032510FB05F08440A3431068C360106868
:10536000C3688C6808680A38032510FB05F0844080
:1053700023431068C36013E01068036907240D68B5
:1053800003204543AC40A3431068036110680369E0
:105390008C680D6803204543AC40234310680361CB
:1053A0004868072818D21068436B1F244868401EBD
:1053B000052510FB05F08440A34310684363106883
:1053C000436B0C884868401E052510FB05F084409F
:1053D00023431068436333E048680D2818D21068EF
:1053E000036B1F244868C01F052510FB05F084408F
:1053F000A343106803631068036B0C884868C01FE0
:10540000052510FB05F0844023431068036317E073
:105410001068C36A1F2448680D38052510FB05F085
:105420008440A3431068C3621068C36A0C8848684C
:105430000D38052510FB05F0844023431068C36236
:10544000724B1068724CA04206D10868122803D132
:10545000586850F48000586010686D4CA0421BD111
:105460000868102802D00868112815D1586850F42F
:1054700000005860086810280ED162480068624C2D
:10548000B0FBF4F40A20444300940098002803D0B1
:105490000098401E0090F8E7002082F83C000020B1
:1054A00032BC7047594A516831F4403151605368F9
:1054B00041680B4353600168496831F480710368A7
:1054C000596001684968036951EA0321036859601A
:1054D0000168496831F040710368596001684B68A0
:1054E00081680B4301684B600168896831F4006191
:1054F0000368996001688B68C1680B4301688B6021
:10550000816A3F4B994218D00168896831F0706117
:105510000368996001688B68816A0B4301688B603E
:105520000168896831F040510368996001688B68AF
:10553000C16A0B4301688B600BE00168896831F038
:105540007061036899600168896831F040510368AF
:1055500099600168896831F0020103689960016807
:105560008968037E51EA43010368996090F820102E
:10557000002914D00168496851F40061036859603A
:105580000168496831F460410368596001684968FD
:10559000436A5B1E51EA43310368596005E00168C4
:1055A000496831F40061036859600168C96A31F4DF
:1055B00070010368D9620168C96AC3695B1E51EA58
:1055C00003510368D9620168896831F40071036886
:1055D00099600168896890F8303051EA4321036886
:1055E00099600168896831F4806103689960016895
:1055F0008968436951EA8321036899607047000014
:105600000100000F0000002040420F000023014075
:1056100000200140704770477047704770477047DF
:1056200010B504000C4B0D4A00212000FFF78AF949
:105630000A480068064908600648074991ED000BD2
:1056400080ED000B01200649086010BD7047000086
:10565000B8240020A8240020A02400207C240020BE
:1056600098240020704770477047704770471000BB
:10567000000001000200010003000100020001001F
:10568000040001000200010003000100020001000B
:1056900005000100020001000300010002000100FA
:1056A00004000100020001000300010002000100EB
:1056B00006000100020001000300010002000100D9
:1056C00004000100020001000300010002000100CB
:1056D00005000100020001000300010002000100BA
:1056E00004000100020001000300010002000100AB
:1056F0000700010002000100030001000200010098
:10570000040001000200010003000100020001008A
:105710000500010002000100030001000200010079
:10572000040001000200010003000100020001006A
:105730000600010002000100030001000200010058
:10574000040001000200010003000100020001004A
:105750000500010002000100030001000200010039
:10576000040001000200010003000100020001002A
:105770007047FEE7FEE7FEE7FEE77047704780B53B
:105780001A48FDF772FB01BD80B51948FDF76DFBA6
:1057900001BD80B51748FFF781F901BD80B51648F6
:1057A000FCF7DBFB01BD80B51448FCF7D6FB01BD5F
:1057B00080B5134800680068C00603D5104800F0A3
:1057C00029F802E00F48FCF7C8FB01BD80B50E4880
:1057D000FDF74BFB01BD80B50C48FDF746FB01BD55
:1057E00080B50B48FDF741FB01BD0000C42000203F
:1057F00024210020542400205C2300209C2300202E
:105800001C220020DC23002064200020441F0020F4
:10581000042000202DE9F843040020681C49096891
:10582000884232D1002000902068006800902068F3
:105830004068009000982068076820684568144810
:10584000FCF752FB134E3000461C0078002802D1B2
:1058500012488642F7D3711E0F4800F023F80E4815
:105860000078002802D001200D49086062275FF00F
:105870000008DFF8209042463900484600F038F82A
:10588000632204490248FCF7D4FABDE8F183000022
:105890001C2200207C1E0020E01E0020DF1E0020B5
:1058A000BC2400205FEA000C80EA01039B0715D1AD
:1058B000830706D011F8013B00F8013BB3B1830721
:1058C000F8D10A68B2F1013323EA020313F0803FF2
:1058D00002BF40F8042B51F8042FF3E711F8013B05
:1058E00000F8013B13B111F8013BF9E7604670473E
:1058F00062F30F2262F31F42401810F0030308D036
:10590000C91A1FD3DB0748BF00F8012D28BF20F8B4
:10591000022D130030B414461546103928BF20E973
:105920003C00FAD8490728BF20E90C0048BF40F8DE
:10593000042D890028BF20F8022D48BF00F8012D52
:1059400030BC7047C91818BF00F8012DCB0728BF1D
:1059500000F8012D704714001248006850F47000E0
:10596000104908601048006850F001000E490860B6
:1059700000200E4908600C4801680D4801400A48A3
:1059800001600C480C4908600748006830F480202A
:10599000054908600020094908605FF00060084977
:1059A0000860704788ED00E0003802400838024087
:1059B000FFFFF6FE10300024043802400C3802408D
:1059C00008ED00E030B450F8041B79B10268436878
:1059D00002440830DC0744BFA9F10104E31852F87F
:1059E000045B43F8045B091FF9D1ECE730BC704756
:1059F00010B5074979441831064C7C44163404E04C
:105A00000A68081D114488470146A142F8D110BD1B
:105A10002C0000004C0000004EF68851CEF2000130
:105A2000086840F470000860BFF34F8FBFF36F8FBA
:105A30004FF00070E1EE100A7047000047C3FFFF0F
:105A400018250000040000200000000079FFFFFF7F
:105A50000400000020020000000000200000000000
:105A60000200000000F00DF8002801D0FFF7C0FF91
:105A7000AFF300800020AFF30080FDF795FC00F04D
:105A800002F80120704700F001B8050007463846CB
:105A900000F002F8FBE7010080B5AFF30080024A96
:105AA00011001820ABBEFBE72600020075432F4F04
:105AB000532D494920546D724C6F636B00000000F8
:105AC00075432F4F532D494920546D725369676EAA
:105AD000616C000075432F4F532D49492049646C78
